S00E00004755494170702E7372656310
S3150000000058580520D148010051430100CD48010050
S31500000010CD480100CD480100CD4801000000000098
S31500000020000000000000000000000000CD480100B4
S31500000030CD48010000000000CDEB020075EC020087
S31500000040A5990000E127010031280100812801005F
S315000000507510010025FE000059F90000EDFC0000B6
S315000000603DFB0000A9070100E107010051E800007F
S315000000700DE70000D9E7000021E60000FFFFFFFFC3
S31500000080FFFFFFFFFFFFFFFFFFFFFFFFFFFFFFFF7A
S31500000090FFFFFFFFFFFFFFFFFFFFFFFFFFFFFFFF6A
S315000000A0FFFFFFFFFFFFFFFFFFFFFFFFFFFFFFFF5A
S315000000B0FFFFFFFFFFFFFFFFFFFFFFFFFFFFFFFF4A
S31500000400FFFFFFFFFFF9FFFFFFFFFFFFFFFFFFFFFC
S31500000410FFFFFFFFFFFFFFFFFFFFFFFFFFFFFFFFE6
S31500000420FFFFFFFFFFFFFFFFFFFFFFFFFFFFFFFFD6
S31500000430FFFFFFFFFFFFFFFFFFFFFFFFFFFFFFFFC6
S31500000440FFFFFFFFFFFFFFFFFFFFFFFFFFFFFFFFB6
S31500000450FFFFFFFFFFFFFFFFFFFFFFFFFFFFFFFFA6
S31500000460FFFFFFFFFFFFFFFFFFFFFFFFFFFFFFFF96
S31500000470FFFFFFFFFFFFFFFFFFFFFFFFFFFFFFFF86
S31500000480FFFFFFFFFFFFFFFFFFFFFFFFFFFFFFFF76
S31500000490FFFFFFFFFFFFFFFFFFFFFFFFFFFFFFFF66
S315000004A0FFFFFFFFFFFFFFFFFFFFFFFFFFFFFFFF56
S315000004B0FFFFFFFFFFFFFFFFFFFFFFFFFFFFFFFF46
S315000004C0FFFFFFFFFFFFFFFFFFFFFFFFFFFFFFFF36
S315000004D0FFFFFFFFFFFFFFFFFFFFFFFFFFFFFFFF26
S315000004E0FFFFFFFFFFFFFFFFFFFFFFFFFFFFFFFF16
S315000004F0FFFFFFFFFFFFFFFFFFFFFFFFFFFFFFFF06
S3150000050020590420FD01440024590420FA01430027
S3150000051028590420FB0143082C590420FC014310F0
S315000005204C5904200A00064850590420700815004A
S31500000530545904206D081508585904206F081510E1
S315000005405C5904206E08151830590420FF01450037
S3150000055034590420FE014508605904207701140827
S31500000560645904207401141068590420760114207B
S315000005706C59042075011428200000002000010099
S315000005802F0000002F0001000C00010011000000E8
S3150000059030000000300001002400000024000100AB
S315000005A024000200240003002400040024000500A7
S315000005B013000000170000002300000021000000C7
S315000005C021000100070000000700010007000200EB
S315000005D007000300070004000700050007000600E7
S315000005E00700070012000000440000000800000099
S315000005F00B00000041000000400000004000010028
S3150000060004000000430000002B0000002B000A003D
S315000006102B000B002B000C002B000D002B00010003
S315000006202B0002002B0003002B0004002B0005000A
S315000006302B0006002B0007002B0008002B000900EA
S315000006400600000006000A0006000B0006000C006B
S3150000065006000D0006000E0006000F000600010051
S31500000660060002000600030006000400060005005E
S31500000670060006000600070006000800060009003E
S3150000068015000000150001001500020031000000F1
S315000006902A000000450000001000000003010000D1
S315000006A003000000030001000F0000000D00000021
S315000006B02D000000420000002C0000002C0001006C
S315000006C02C0002002C00030032000000280000006D
S315000006D018000000140000001400010014000200BD
S315000006E014000300140004001400050014000600A2
S315000006F0140007001400080014000900340000006C
S31500000700340001001600000016000100350000004C
S315000007103600000036000100220000003300000011
S31500000720330100002900000010B5054C237833B9C9
S31500000730044B13B10448AFF300800123237010BDAE
S31500000740800EFE1F00000000D818040008B5034BF9
S315000007501BB103490348AFF3008008BD0000000049
S31500000760840EFE1FD81804002DE9F041364AD0F851
S315000007703031166A1D689C6882B000218046B0F848
S315000007802C01B04702202DF0A1FD23692846984789
S315000007900121B8F82C01B04702202DF097FD2B4B14
S315000007A001930A260422E76800230DEB020128467E
S315000007B0B84740B1013EF5D12369284698476420E1
S315000007C002B0BDE8F0814CF20403ADF804300A260D
S315000007D0E7680023022201A92846B84710B1013E66
S315000007E0F6D1E9E740F62243ADF804300A27E66879
S315000007F00023022201A92846B04710B1013FF6D1D5
S31500000800DAE70B23ADF804300A27E6680023022254
S3150000081001A92846B04710B1013FF6D1CCE7E02345
S315000008208DF804300A27E6680023012201A928462C
S31500000830B04710B1013FF6D1BEE7052388F81C305A
S3150000084002B0BDE8F08100BF34C60300007427047F
S315000008502DE9F043D0E94C32884691681C689D68C2
S3150000086083B0064610684A684FF0FF31904710B1D2
S3150000087003B0BDE8F08303226323C8F8040088F8B8
S3150000088008208DF803304FF00A0901231A460DF1AE
S315000008900301EF682046B847034601220DF1030124
S315000008A0204613B9AF68B84748B1B9F10109ECD190
S315000008B02B6920469847642003B0BDE8F0839DF875
S315000008C003305B0746D44FF00A090422AF680023C1
S315000008D00DEB02012046B84718B1B9F10109F4D170
S315000008E0E6E79DF804309DF806709DF805509DF8E2
S315000008F00740B188F28803F00F0307F00F0745EAB7
S31500000900032544EA0724234B01FB05F102FB04F20D
S31500000910A3FB0154A3FB0253091BD21A04EB51019A
S3150000092003EB520341F3CF2143F3CF23A8F804107E
S31500000930A8F80630327F541E012C0FD9032A0FD097
S3150000094098F808203277042A19D03183738303B0CC
S31500000950BDE8F083042388F80830B4E70322327731
S3150000096098F80820032AEDD1D8F80420B4699442F7
S3150000097014BF0222012288F808203277E5E7B6F98B
S315000009801820B6F91A30A8F80630A8F8042003B0E3
S31500000990BDE8F0830101100070B4049CE60624F063
S315000009A0300503D5D0F8806036021AD5A60603D5E1
S315000009B0D0F88060B60214D50D3D022D0AD9406AE2
S315000009C0C0F87031039BC0E95A12C0E95D340020BB
S315000009D070BC7047D0F88050EE03F0D4EDB2092D0C
S315000009E0EDD8092380F8C63170BC1846704700BFA1
S315000009F02DE9F04F2DED028B446A056B8FB08846CA
S31500000A00BDF868600993D4F8783109990A96BDF95A
S31500000A106C60079603F01003BDF9706008960746F0
S31500000A20D4F86C011F9E06939146D4F87031BDF937
S31500000A3074A0BDF978B00A46B0F5006F4244A8BF6D
S31500000A4026F008069A42C8BF5B1A0A99C8BF0C93DB
S31500000A500A46D4F87431D8BFCDF830804A449A4259
S31500000A60C6BF5B1A0D93CDF8349025B116F480738A
S31500000A700B9300F01681E37D0B930321384601F0BA
S31500000A8007FA00221146384606F09CFE069B002B0C
S31500000A9000F0CF80D4F868310C9306F00F01384689
S31500000AA007F018FAD4F87811D4E95B230191D4F849
S31500000AB07411009138460C9907F096F8B30600F1C8
S31500000AC0E3804FF07F431946F00640F1E580720659
S31500000AD000F15281A268134394F80E21BDF81C0060
S31500000AE0C4F8581142F005021028C4F85C3184F8A5
S31500000AF00E2140F23581089A102A4FEA0851B1FBBF
S31500000B00F0FE4FEA6E0340F333814FEA0950B0FB23
S31500000B10F2F04210B10544BFC3EB0843CEF1000E1C
S31500000B20710544BFC2EB09424042710748BFA3F5B5
S31500000B3000433107069948BFA2F5004229B1099939
S31500000B4003EB01430A9902EB01424FF0000CCDE999
S31500000B50002E04905A465146CDE902CC384606F09E
S31500000B600FFE089B0193079B009352465B46214666
S31500000B70384600F011FD002D00F0E88016F4807074
S31500000B8040F0E4802B78E375AB7884F80E316B780F
S31500000B9084F8D530D5E90112EB68C4F82C31C4E9E4
S31500000BA03F1295F8293084F8E930D5E90423C4E9E1
S31500000BB04D3295F8283084F8E830D5E906312A6AAE
S31500000BC0C4F8EC306B6AC4F8F830C4E93C1295F806
S31500000BD02A3084F8EA3095F82B3084F8EB30D5E9E2
S31500000BE00B126B6BC4F83C11A96BC4F84021EA6B7D
S31500000BF0C4F82431B5F85430C4F85811B5F8561075
S31500000C00C4F85C21EA6CA4F8A8302B6D6E6CA4F8CD
S31500000C10AA10C4F8A020A96CC4F8A430D5E91723FB
S31500000C20C4E92661C4E92C230FB0BDEC028BBDE8F4
S31500000C30F08FD4F8783123F03003422B00F2A580F0
S31500000C40DFE803F0C3D2DDD2D2B9DDD2D2C3C3C34B
S31500000C50C3C3C3C3A3A3A3A3A3A3A3A3A3A3A3A3DE
S31500000C60A3A3A3A3A3A3A3A3A3A3A3A3A3A3A3A34E
S31500000C70A3A3A3A3A3A3A3A3A3A3A3A3A3A3A3A33E
S31500000C80A3A3A3A3DDD2D20016F0800179D1F0068A
S31500000C904FF07F433FF51BAF70066DD463F07F4383
S31500000CA01AE7E37D2B7094F80E31AB7094F8D530CB
S31500000CB06B70D4E93F326B60D4F82C31C5E902235E
S31500000CC094F8E93085F82930D4E94D32C5E9042392
S31500000CD094F8E83085F82830D4E93B23AA61D4F8A3
S31500000CE0F420EB61D4F8F830C5E9082394F8EA302B
S31500000CF085F82A3094F8EB3085F82B30D4E94F325A
S31500000D00EB62D4F824312A63D4F858216B63D4F803
S31500000D105C31AA63B4F8A820EB63B4F8AA30A5F84E
S31500000D205420D4F8A020A5F85630D4F8A430EA64AC
S31500000D30D4F898202B65D4F89C306A64D4F8B02097
S31500000D40AB64D4F8B430C5E9172396E60B99384658
S31500000D5001F09EF800200FB0BDEC028BBDE8F08FCD
S31500000D60089A102A4FF000034FF4803E3FF7CDAEAD
S31500000D7000224FF48030CDE6D4E90202014313434A
S31500000D80AAE600234FF07F419EE606F00F013846A3
S31500000D9007F0A0F8002308EE103AD4F878310D9841
S31500000DA0D4F86C21019300900C9B18EE101A38466B
S31500000DB006F01AFF82E6D7F880309A022AD5174B3A
S31500000DC0C4F82C31012384F8E930D4E95A23DDE94B
S31500000DD0090103FB0103D31808EE103A06F00F01D0
S31500000DE0384607F077F8D8E7D4E95A23DDE9090150
S31500000DF003FB010302EB430308EE103AEEE7D4E9E6
S31500000E005A23DDE9090103FB010302EB830308EE24
S31500000E10103AE3E7092087F8C60105E71000040049
S31500000E202DE9F04385B09146BDF930201F46A9F162
S31500000E301008BDF934309044A7F110061E441FFA7D
S31500000E4088F8B6B208F10F0222F00F0206F10F037E
S31500000E5029F00F0423F00F030D46ADF80C2002A96C
S31500000E6027F00F02ADF80840ADF80E30ADF80A20B5
S31500000E70044607F005FF10B905B0BDE8F083294622
S31500000E80204605F007FF95F8D5309A070FFA88F83F
S31500000E9036B200F10481D80740F15683D4E96EC317
S31500000EA0BDF90810D5F81001A1EB09015A1E00FB87
S31500000EB001F100EB11110CF1080E0423002AC4F80D
S31500000EC0B8E1CCF80410CCF80030C4F8BC2140F3EB
S31500000ED0AD82013A0EF108030A21002AC4F8B8319E
S31500000EE0CEE90010C4F8BC2140F35D82013A00212E
S31500000EF003F1080C10208A42C4F8B8C1C3E9000106
S31500000F00C4F8BC2140F34882BDF90830D5F8101169
S31500000F10A8EB0308013A01FB08F301EB13130CF1EC
S31500000F2008004FF0050E002AC4F8B801CCE900E32A
S31500000F30C4F8BC2140F37182013A494200F108032A
S31500000F404FF00B0C002AC4F8B831C0E900C1C4F850
S31500000F50BC2140F35B82013A002003F108014FF007
S31500000F60110C8242C4F8B811C3E900C0C4F8BC2110
S31500000F7040F34582BDF90A30D5F81001DF1B00FBAE
S31500000F8007F7531E00EB171701F108020620002B86
S31500000F90C4F8B821C1E90007C4F8BC3140F328827F
S31500000FA0013B002002F108010C278342C4F8B81166
S31500000FB0C2E90070C4F8BC3140F31382D5F81021A1
S31500000FC0013B01F108001227002BC4F8B801C1E962
S31500000FD00072C4F8BC3140F3FB81BDF90A10761AE1
S31500000FE002FB06F6013B02EB161200F1080107268A
S31500000FF0002BC4F8B811C0E90062C4F8BC3140F354
S31500001000E081013B002001F108020D268342C4F86D
S31500001010B821C1E90060C4F8BC3140F3CB81D5F8F2
S315000010201011013B494202F108061320002BC4F8B7
S31500001030B861C2E90001C4F8BC3140F3A8810F23AE
S315000010400093042302AA2946204602F0F1FD00235C
S31500001050064602AA2946204605F08AF929460023B3
S3150000106002AA204606F068FFD4E96E230021013B60
S3150000107002F108008B42C4F8B801C2E90016C4F8B0
S31500001080BC3103DCD4F8C03120469847204602A97B
S31500001090002206F0C5F8012005B0BDE8F083D907A7
S315000010A03FF5FCAE49EA080247EA0603120703F0D9
S315000010B00F0300F0C781BDF90820D4F8B801002B52
S315000010C066D1D4F8BC31A2EB0902120302F58032D4
S315000010D0013B00F10801C4F8B811002B42604FF043
S315000010E004020260C4F8BC3140F34D82013B01F1B9
S315000010F008020A264FF48030002BC4F8B821C1E953
S315000011000060C4F8BC3140F33782013B002102F194
S31500001110080010268B42C4F8B801C2E90061C4F881
S31500001120BC3140F32282BDF90820A8EB0208013B3E
S315000011304FEA083202F5803200F108010526002B3D
S31500001140C4F8B811C0E90062C4F8BC3140F30682A5
S31500001150013BBB4801F108020B26002BC4F8B8215D
S31500001160C1E90060C4F8BC3140F3F18102F1080125
S31500001170013BC4F8B811002111208B42C2E90001DD
S31500001180C4F8BC3140F3DB8103230093022359E703
S31500001190D4F8BC31A2EB0902120302F58032013BFE
S315000011A000F10801C4F8B811002B42604FF00402A8
S315000011B00260C4F8BC3105DCD4F8C031204698473B
S315000011C0D4E96E13013B01F108024FF00A0C4FF40B
S315000011D08030002BC4F8B821C1E900C0C4F8BC3186
S315000011E005DCD4F8C03120469847D4E96E23013B8C
S315000011F0002102F108004FF0100C8B42C4F8B80130
S31500001200C2E900C1C4F8BC3105DCD4F8C0312046BF
S315000012109847D4E96E03BDF90820A8EB0208013B04
S315000012204FEA083202F5803200F108014FF0050C52
S31500001230002BC4F8B811C0E900C2C4F8BC3105DC03
S31500001240D4F8C03120469847D4E96E13013B7C4858
S3150000125001F108024FF00B0C002BC4F8B821C1E9CC
S3150000126000C0C4F8BC3105DCD4F8C031204698472C
S31500001270D4E96E23013B002102F108004FF0110C66
S315000012808B42C4F8B801C2E900C1C4F8BC3105DC20
S31500001290D4F8C03120469847D4E96E03BDF90A2038
S315000012A0D21B013B120302F5803200F1080106272A
S315000012B0002BC4F8B811C0E90072C4F8BC3105DCD3
S315000012C0D4F8C03120469847D4E96E13013B00207C
S315000012D001F108020C278342C4F8B821C1E9007065
S315000012E0C4F8BC3105DCD4F8C03120469847D4E9AF
S315000012F06E23013B02F1080012274FF48031002BC8
S31500001300C4F8B801C2E90071C4F8BC3105DCD4F8F0
S31500001310C03120469847D4E96E03BDF90A20B21AB7
S31500001320013B120302F5803200F108010726002B6B
S31500001330C4F8B811C0E90062C4F8BC3105DCD4F8C1
S31500001340C03120469847D4E96E13013B002001F1D5
S3150000135008020D268342C4F8B821C1E90060C4F82A
S31500001360BC3105DCD4F8C03120469847D4E96E2359
S31500001370013B02F108003249C4F8B801002B4FF0D6
S315000013801300C2E90001C4F8BC313FF758AED4F8E7
S31500001390C0312046984752E6D4F8C03120469847D7
S315000013A0D4E96EC2B0E5D4F8C03120469847D4E9F6
S315000013B06E329BE5D4F8C03120469847D4E96E23B7
S315000013C02DE6D4F8C03120469847D4E96E1318E6C6
S315000013D0D4F8C03120469847D4E96E03D5F81021D9
S315000013E0FBE5D4F8C03120469847D4E96E13E5E50D
S315000013F0D4F8C03120469847D4E96E23D0E5D4F816
S31500001400C03120469847D4E96E12B3E5D4F8C0310E
S3150000141020469847D4E96E329DE52046D4F8C0317F
S315000014209847D4E96E02D5F8101185E52046D4F820
S31500001430C0319847D4E96EE2D5F8100149E500BFFE
S315000014400000FFFF002B7FD0D4E96E03BDF90A2010
S31500001450D71B013B3F0307F5803700F10801042243
S31500001460002BC4F8B81147600260C4F8BC3105DC33
S31500001470D4F8C03120469847D4E96E13013B0020CA
S3150000148001F108020A278342C4F8B821C1E90070B5
S31500001490C4F8BC3105DCD4F8C03120469847D4E9FD
S315000014A06E23013B02F1080010274FF48031002B18
S315000014B0C4F8B801C2E90071C4F8BC3105DCD4F83F
S315000014C0C03120469847D4E96E03BDF90A20B61A02
S315000014D0013B360306F5803600F108010522002B94
S315000014E0C4F8B811C0E90026C4F8BC3105DCD4F84C
S315000014F0C03120469847D4E96E13013B002001F124
S3150000150008020B268342C4F8B821C1E90060C4F87A
S31500001510BC3105DCD4F8C03120469847D4E96E23A7
S31500001520013B02F108001B49C4F8B801002B4FF03B
S315000015301100C2E90001C4F8BC313FF725AED4F86A
S31500001540C031204698471FE6002300937AE5D4F879
S31500001550C03120469847D4E96E2307E6D4F8C03157
S3150000156020469847D4E96E13F2E5D4F8C0312046F8
S315000015709847D4E96E03D6E5D4F8C031204698479B
S31500001580D4E96E23C1E5D4F8C03120469847D4E9A2
S315000015906E13ABE50000FFFF30B4BDF90840BDF99E
S315000015A00C5034B1002D04DDCDE9024530BCFFF707
S315000015B037BC002030BC704730B583B0BDF9185039
S315000015C043B1002D06DDCDE9003513460A46816A92
S315000015D0FFF726FC002003B030BD00BFF0B583B096
S315000015E0BDF9205073B1002D0CDDB0F87070B0F865
S315000015F06E6000933A443144019513B20AB2C16A4F
S31500001600FFF70EFC002003B0F0BD00BF2DE9F04F40
S31500001610B0F96C708DB0002FBDF9589048DD102FD1
S315000016200D460646C16A98460BD091F8D730012B75
S3150000163042D1B1F9D830BB423EDD91F8D530DB0757
S315000016403AD4B8B21FFA89F909EB400A94B20FFAF4
S315000016508AFA231ABAF1000F1BB261DD1FFA85FB65
S31500001660ABEB0002CDE9007A12B230460793FFF7E2
S31500001670D7FBF16A079BB8F1000F5FD02A46CDE988
S3150000168000873046FFF7CCFBCDE9007A0BEB08026A
S31500001690079BF16A12B23046FFF7C2FB04EB090260
S315000016A0F16A13B2CDE900872A463046FFF7B8FB48
S315000016B000200DB0BDE8F08FADB292B2A8F10808D7
S315000016C0A9F10809C7F34F009144A844083A083D18
S315000016D0141A002304222D1A8044484401972DB27F
S315000016E007B224B20FFA88F802920092CDE90333CA
S315000016F0304608AAADF82050ADF82C50ADF822407F
S31500001700ADF82640ADF82480ADF82880ADF82A70F3
S31500001710ADF82E7004F002FF00200DB0BDE8F08F8A
S31500001720B8F1000FC4D02A46CDE900873046FFF74E
S3150000173077FB04EB0902F16A13B2B3E7CDE9007A4D
S315000017402A463046FFF76CFBB2E700BF2DE9F041B1
S3150000175082B01C46BDF920600096054620340F462F
S31500001760904624B2FFF752FF284605F035FA74B1C9
S31500001770203636B2002E0ADDCDE90046A8F1100368
S31500001780103FA96A1BB23AB22846FFF749FB284622
S3150000179005F028FA002002B0BDE8F0812DE9F041FD
S315000017A082B00446BDF92060EBB1002E1BDD174662
S315000017B01D46B0F86E20B0F87030019600953B4497
S315000017C00A4488461BB2C16A12B2FFF729FB2046BB
S315000017D005F002FACDE900563B46A16A424620468C
S315000017E0FFF71EFB02E0204605F0F6F9204605F05D
S315000017F0F9F9002002B0BDE8F08100BF2DE9F047FD
S315000018008AB00446BDF94C60BDF94880002E0D46ED
S3150000181091461F4640F3E48008EB660189B292B216
S31500001820A2EB010C0F329BB20A4403F10F0022F027
S315000018300F025B1A0844ADF82420A8EB66022CF0D0
S315000018400F0C23F00F0320F00F00082AADF820C07C
S31500001850ADF82230ADF8260036DDB5F9DA30002BCA
S315000018603ADDBDF92020B4F97210B4F97400D21A29
S315000018708A42A8BF11B2BDF92220ADF82010D21AB3
S315000018808242A8BF10B2BDF92420B4F97610ADF893
S3150000189022001A448A42D8BF11B2BDF92620ADF8FB
S315000018A02410B4F978109A4613448B42C8BFADF899
S315000018B02610204608A9D8BFADF8263007F0E0F973
S315000018C090B90AB0BDE8F087B5F9DA30002B0FFA07
S315000018D081F84FF00006C4DC08A920464FF0000A44
S315000018E007F0CEF90028ECD0BDF82030BDF8221064
S315000018F0A9EB03031BB27F1A2046294607933FB282
S3150000190005F0C8F9D5F82891079B002E00F0CE8087
S3150000191006FB06F2904505DD95F8D52012F001028A
S3150000192000F0818006EBD676C6F34F061FFA88F8DC
S3150000193006EB0801002209B24FF0010ACDE9007159
S31500001940CDE9032A029229462046A8EB060607930C
S3150000195036B200F025FC764A079B0292CDE903AA2F
S315000019600222019600972946204600F019FCD4F879
S31500001970802009F42069520149F0C50305D595F880
S31500001980D520120602F080721343009308AA04239E
S315000019902946204602F04CF9D4E96E230026013B85
S315000019A002F10801B342C4F8B811C2E90060C4F8F4
S315000019B0BC3133DD002608AA29462046002304F060
S315000019C0D7FC2946002308AA204606F0B5FA204689
S315000019D0324608A905F024FC01200AB0BDE8F087CC
S315000019E01FFA88F29BB202F10F0C1FFA89F003F17D
S315000019F00F0184449B1A801A11442CF00F0C20F01E
S31500001A000F0021F00F0223F00F03ADF824C0ADF84C
S31500001A102000ADF82620ADF822301EE7D4F8C031FC
S31500001A2020469847C7E706F1100101EBD17108F18E
S31500001A3001080FFA88F0491009030190012003926A
S31500001A400097029104902946204609F4007900F097
S31500001A50A7FB49F4004343F04103009308AA02237D
S31500001A602946204602F0E4F8D4E96E23013B4FEA0A
S31500001A70063C02F108011626002BC4F8B8110746E9
S31500001A80C2E9006CC4F8BC314ADD013B002601F115
S31500001A900800B342C4F8B801C1E90067C4F8BC3114
S31500001AA088DCD4F8C0212046904784E701213246DD
S31500001AB00491CDE902662946CDE90078204600F07A
S31500001AC06FFBD4F8802009F4007949F440035101F2
S31500001AD043F0410305D595F8D520120602F0807231
S31500001AE01343009308AA02232946204602F0A0F8D1
S31500001AF0D4E96E230021013B02F108068B42C4F8AB
S31500001B00B861C2E90010C4F8BC3103DCD4F8C031B6
S31500001B1020469847D04408F10F084FEA18164AE7BE
S31500001B20D4F8C03120469847D4E96E13ADE700BF1C
S31500001B300080FFFF70B582B00E46BDF91840816A7D
S31500001B40019415461C4632462B460094FFF756FE76
S31500001B50002002B070BD00BFF0B5B0F87070B0F8EC
S31500001B606E6083B00D46BDF92040C16A00933A44C9
S31500001B70354413B201942AB2FFF740FE002003B0A9
S31500001B80F0BD00BF2DE9F043B0F96C8085B0B8F127
S31500001B90000FBDF9305016DD1C46002D06460F46D7
S31500001BA013461FFA84F912DCC8F34F0405EBD5750A
S31500001BB04C4404EB650424B2CDE900483A46F16A88
S31500001BC03046FFF71BFE002005B0BDE8F083A9EB09
S31500001BD06502C8F34F04121B12B2CDE900280A466B
S31500001BE0C16A0393FFF70AFE039BDFE72DE9F04383
S31500001BF083B0B0F96C50BDF92890B9F1000F0446D6
S31500001C000E461746984613DD002D25DC204604F0C7
S31500001C10E3FFCDE900893B46A16A32462046FFF73D
S31500001C20EDFD204604F0DEFF002003B0BDE8F083A2
S31500001C30ECD1002DEADDA5F1100303EBD37308EB1D
S31500001C40630308351BB22DB2CDE9003513460A46AB
S31500001C50C16AFFF7D3FDD9E709EB45052DB2CDE9FA
S31500001C60003513460A46C16AFFF7C8FDCEE700BF36
S31500001C702DE9F041B0F86EC0B0F870E082B00D46C4
S31500001C80BDF92080C16ACDF804801F46164602EBD6
S31500001C900E0305EB0C0204461BB212B20097FFF7C7
S31500001CA0ADFD204604F098FF0097CDF80480A16AA8
S31500001CB033462A462046FFF7A1FD204604F092FF50
S31500001CC0002002B0BDE8F081F8B506464FF4BE70BC
S31500001CD004F0DCFA0446002800F0978000254FF057
S31500001CE0FF37022380F8D53080F80E510761D6F809
S31500001CF080304660042084F8E90013F0006F454AFE
S31500001D00736DC4F8285108BF4FF480021343C4F81A
S31500001D10202143F4012310224FF07F4143F4C06396
S31500001D20A282C4F8D0204FF47032C4E953116FF088
S31500001D307F4CC4F82431C4F854114FF480334FF467
S31500001D400021C4F83421AA22C4E902CCC4F8103117
S31500001D504FF4B05CC4F83031C4F81831C4F82C1113
S31500001D60012340F20111C4F81421C4F8C420402212
S31500001D70C4F81CC1E38284F8D430C4E94F55C4F8D2
S31500001D8044512583C4F8CC50C4F8C800A4F80C31DB
S31500001D90A4F8D610C4F8D82004F11C00C4E93F55B5
S31500001DA0C4E9415584F80F51C4F8485101F038FF91
S31500001DB004F1340001F034FF04F14C0001F030FF6F
S31500001DC004F1640001F02CFF04F17C0001F028FF0F
S31500001DD004F1940001F024FF04F1AC0001F020FFAF
S31500001DE00C230D4A84F8E830C4E93757C4F8387133
S31500001DF0C4F8E4202146304605F09AFDF3692360D5
S31500001E0086F8C651F4612046F8BD012386F8C6312E
S31500001E10F9E700BF080040200103030338B5036A51
S31500001E208B4205462FD00C4600F11C031A461B6850
S31500001E30A34206D0002BF9D1032385F8C6311846F4
S31500001E4038BD236813606B6AA34219D0EB6AD4F8D5
S31500001E500801A34204BF2B6AEB62AB6AA34204BF2C
S31500001E602B6AAB6220B107F0EBFD0023C4F8083102
S31500001E70204604F00DFA002385F8C631184638BD11
S31500001E802B6A6B62E2E7072380F8C631184638BD35
S31500001E90436A93F80E21D97542F00102022983F8AC
S31500001EA00E2118D00AD893F8D52022F00C0283F818
S31500001EB0D520002380F8C631184670470329F8D18B
S31500001EC093F8D52042F00C0283F8D520002380F841
S31500001ED0C6311846704793F8D52022F0080242F022
S31500001EE0040283F8D520002380F8C63118467047CF
S31500001EF010B40231446A22F07F4244F8212094F85B
S31500001F000E21034642F00102002084F80E2183F8D8
S31500001F10C6015DF8044B704730B4436A9C7C93F865
S31500001F200E2199748C4242F0010518BF42F0070257
S31500001F3083F80E5118BF83F80E219A7DD20744BF4D
S31500001F400906C3F84C11002380F8C63130BC184688
S31500001F50704700BF30B4446A94F80E31032943F049
S31500001F600103054684F80E3125D8184B53F8211085
S31500001F70032A20D8DFE802F02404270241F4A05106
S31500001F80D4F82021D4F82C31686DC4F81C11134301
S31500001F90D4F83C210343D4F840011343D4F8442138
S31500001FA0034313430B430022C4F8243185F8C621AA
S31500001FB0104630BC7047102085F8C60130BC70470B
S31500001FC041F48051DCE741F48061D9E790C3030016
S31500001FD030B4446A94F80E31054643F001030020FC
S31500001FE084F80E312076D5F880301B0121D40129E2
S31500001FF037D089BB012A2FD14FF44001D4F82C21C8
S31500002000D4F81C31686DC4F820111343D4F83C2170
S315000020100343D4F840011343D4F844210343134344
S315000020200B430022C4F8243185F8C621104630BC83
S315000020307047032910D8114B53F82110032A0BD8E7
S3150000204001A353F822F000BF77200000FD1F000017
S31500002050712000006D200000102085F8C60130BCFC
S315000020607047002AF8D14FF48001C7E741F00051CC
S3150000207041F08001C2E741F00051BFE7A0C3030071
S31500002080436A69B193F8D520002142F0020283F831
S31500002090D520C3F82811002380F8C63118467047AA
S315000020A030B493F8D5204FF4FC454FF4803422F039
S315000020B00302102183F8D520C3F82851C3F8104134
S315000020C09982002380F8C63130BC1846704700BF9D
S315000020D0426A0346022910B44FF000000CBF0324E5
S315000020E0002482F8D61082F80F4183F8C6015DF805
S315000020F0044B7047426A0346002082F8D71083F8E3
S31500002100C6017047F0B482B0DDE90674019440B3AD
S315000021103C43456A1DD001EB410405EBC404089E0F
S3150000212022860022C4E90A22638646F0010C019B3E
S3150000213027626362C4F81CC06B7E012202FA01F1B9
S3150000214019436976002380F8C631184602B0F0BC00
S3150000215070476B7E012202FA01F123EA01016976DA
S31500002160F0E7022002B0F0BC704700BF30B4D0F8F0
S315000021704C11027C437C90F80E416FF07F45090AB2
S3150000218001FB025201FB035302F07F4224F00201DD
S3150000219003F07F4330BCC0E9542380F80E1170472A
S315000021A02DE9F04F89B01646BDF94C80BDF948704F
S315000021B0019191F8D510149C02941FFA88FB159C86
S315000021C00394A3EB0B09CA07A7EB0B0BDDF858C06A
S315000021D01D4604460FFA89F90FFA8BFB40F1FC8085
S315000021E0BCF1000F40F08E810FFA88F2D3174FF042
S315000021F078404FF0FF312DF03FFE019BB3F91420DC
S315000022000902D31741EA106100022DF035FE0BFBDF
S315000022100BF209FB0922002AB8BFFF3284461012CE
S31500002220C3178A4600FB01F10CFB0311A0FB0C232C
S315000022300B44114600291A4672F10003CDE9041237
S3150000224006DA11F10F030493059B43F1000305938E
S31500002250019B0599D3F810E1D94408EBD87809EB2E
S3150000226068084246D317A8FB0E890EFB0399049B08
S315000022701B0943EA01734FEA08101B1A4FEA0912B9
S3150000228042EA187206934FEA211363EB020307939F
S31500002290DDE90623002A73F1000106DA12F1FF03D5
S315000022A00693079B43F1000307935346DDE9069A1D
S315000022B06246002A4FEA192873F1000148EA0A68C3
S315000022C007DA40F6FF711CEB01024FF0000141EB0B
S315000022D003034FEA123AC5F108054AEA035A0AFB14
S315000022E005F56D0000F10C81C7F108070AFB07F739
S315000022F07F00039B48BF0F372D113F11002B00F0C5
S315000023008280D4E96E230299C8F10008A8EB010087
S31500002310013B02F10801C4F8B811002B506006F128
S3150000232004001060C4F8BC3105DCD4F8C031204686
S315000023309847D4E96E13013B6D4201F10802701D06
S31500002340002BC4F8B821C1E90005C4F8BC3105DC8E
S31500002350D4F8C03120469847D4E96E23013B7F422A
S3150000236002F1080106F11000002BC4F8B811C2E909
S315000023700007C4F8BC3105DCD4F8C03120469847C4
S31500002380D4E96E13013BCAEBCA7A4FEA4A0501F15A
S31500002390080206F10B00002BC4F8B821C1E90005BC
S315000023A0C4F8BC3105DCD4F8C03120469847D4E9DE
S315000023B06E23013B113602F10801002BC4F8B81157
S315000023C0C2E90065C4F8BC317BDCD4F8C0312046D4
S315000023D009B0BDE8F04F184759EA0B0374D1C8F1AC
S315000023E008056C4B93FBF8FA0AFB05F56D0048BF30
S315000023F00F35C8EB48582D114FEAC8282F46039BC6
S31500002400002B7FF47EAFD4E96E13029A4244104645
S31500002410013B01F10802C4F8B821002B486006F11F
S3150000242004000860C4F8BC3105DCD4F8C03120468D
S315000024309847D4E96E23013B02F10801701D002B79
S31500002440C4F8B811C2E90005C4F8BC3105DCD4F8FB
S31500002450C03120469847D4E96E13013B01F10802CA
S3150000246006F11000002BC4F8B821C1E90007C4F832
S31500002470BC3105DCD4F8C03120469847D4E96E2338
S31500002480013B4FEA4A0502F1080106F10B00002B59
S31500002490C4F8B811C2E90005C4F8BC3105DCD4F8AB
S315000024A0C03120469847D4E96E13013B113601F13D
S315000024B00802002BC4F8B821C1E90065C4F8BC3194
S315000024C083DD09B0BDE8F08F0BFB0BF209FB092297
S315000024D0314B93FBF8FAC5F1080582FB0A234FEA54
S315000024E0EA0AD94408EBD878D00A0AFB05F509EBC5
S315000024F0680840EA43506D00A0EB08387FF5F4AE5B
S315000025000F35F1E6D0F880305B017FF56DAE019BAB
S31500002510C5F10805B3F914104FF0784292FBF8F2B2
S31500002520920192FBF1F14FEA211A0AFB05F5C7F178
S315000025300807002D0AFB07F70BFB0BF209FB092224
S31500002540B8BF0735002FB8BF0737002AB8BFFF321C
S31500002550121282FB0123002A73F100014FEAE505FE
S315000025604FEAE70702DA0F3243F10003019908EB5D
S31500002570D878D1F810C109EB0B0000EB6800A0FB7E
S315000025800C014FEA1218800048EA0378A8EB00080D
S3150000259035E700BF0000F8FF0000C0FFF8B50646AB
S315000025A01420B7690D4603F071FE0446D8B1B36E28
S315000025B085600022C260D80705EB850515D4A90001
S315000025C0304603F091FE0546606035B3B36E0022D7
S315000025D0D907226105D4D6F88430DA0615D49B07CC
S315000025E009D4002323602046F8BDA80003F04EFE60
S315000025F005466060E9E7A26802EB8202384692006F
S31500002600042107F021FA2061EBE72946384607F056
S3150000261025FA002320612360E5E7204603F038FE13
S315000026202C46E0E7F8B5876919B306460C460CE078
S31500002630696803F07BFE2A691AB1D6F884309B07D5
S315000026400ED4284603F024FE9CB1B36E13F0010F9E
S31500002650254630462468EBD0686803F019FEEAE7A1
S315000026603846042107F0F4F9284603F011FE002C41
S31500002670EBD1F8BD836810B50446186838B1D0E9C7
S3150000268001230021C1602261E361A06010BD216ABF
S315000026902068FFF783FF10B1A3681860EFE723688F
S315000026A0152283F8C72110BD436970B50546F3B1FD
S315000026B001685A688E696AB100241A6852F82420A3
S315000026C0013422B10421304607F0C2F96B695A6819
S315000026D0A242F2D8186803F0DBFD686903F0D8FD62
S315000026E0286B18B1BDE8704003F0D2BD70BDD0E9CB
S315000026F00001FFF797FFF3E72DE9F043466983B042
S315000027000446002E41D0C269002A38D1B169036857
S3150000271001299F6940F2A280D0F808C03169DCF82F
S315000027200C900369DCE901E505EB85050EEB8500F8
S3150000273001EB8508B9F1000F03D0C9F80080CCF889
S315000027400C20984205D94FF0803543F8045B984237
S31500002750FBD8DCF80830102503EB83039B00724698
S315000027603846009507F07EF9B369C6F81080013B3C
S31500002770B361204603B0BDE8F043FFF77BBFB36902
S31500002780012B22D003B0BDE8F0830569794B2B609D
S315000027902A46C369816842F8046F013BCA6040F269
S315000027A0FF3105F10C02A960C36186610261FFF782
S315000027B061FF236893F9C731002B40F08180A3683D
S315000027C05B686B6003B0BDE8F083F2690368012AB9
S315000027D09F6948D9F568D4F808806868013AF261BB
S315000027E0002800F0B1804246D8F80C30002B59D0B2
S315000027F000211860C8F80C10A169236903290FD8B5
S31500002800DFE801F058433602196821F07F4141F0B4
S315000028100041196040F2FF3003F114011861216193
S31500002820D2E90123E069316900F1FF3C4FF0000E67
S31500002830384603EB83031027C4F81CC09B00C4F87A
S3150000284018E0009707F00EF96B68002B91D02B1D4E
S31500002850F3606A6873693261B3618AE7F269012AD3
S31500002860B8D886D1012904BF152283F8C72180E78D
S31500002870198841F0004141F40001196040F2FF302F
S3150000288003F11001D8602161CAE7197841F080216F
S3150000289041F40001196040F2FF3003F10C01986029
S315000028A02161BDE72169334B0B6001F1080341F853
S315000028B0040FD16040F2FF3143F8041B2361AFE7F8
S315000028C02369A269A3F10C012161032A11D8DFE86B
S315000028D002F0162D1E0253F80C2C22F07F4242F015
S315000028E0004240F2FF3003F1080143F80C2C586017
S315000028F02161E3690022013BC4E9062342E740F275
S31500002900FF31A3F1080243F80C1C2261F1E733F80A
S315000029100C2C194642F0004242F4000240F2FF300D
S3150000292043F80C2C41F8040B2161E2E713F80C2C58
S3150000293042F0802242F4000240F2FF3143F80C2CB0
S3150000294043F8041C2361D4E7B26802EB82029200CA
S315000029500421384607F078F8686008B1A26843E7B2
S315000029602368012283F8C7216868A26800283FF41B
S3150000297043AF39E73280808082690369032A0BD826
S31500002980DFE802F00F021E101A7842F0802242F4AD
S31500002990000243F8082B0361C3690022013BC0E92A
S315000029A0062370471A6822F07F4242F0004243F83D
S315000029B0102B0361C3690022013BC0E90623F0E73F
S315000029C01A8842F0004242F4000243F80C2B0361DD
S315000029D0C3690022013BC0E90623E2E701688A6E6B
S315000029E012F0200230B407D101F2771301F5D97144
S315000029F003F8012F8B42FBD142684369C0E90222EA
S31500002A003BB11968D9600D685C6859691D61C3E9F5
S31500002A100614D2E901320361002330BCC0E9063254
S31500002A20C36270472DE9F047D0F818A088464FF0EA
S31500002A300009D8F8004014F0803F17D0B4F1803F69
S31500002A4043D0220444D5E4B2322C00F08280D8F878
S31500002A5004202146504601F059FC202C70D0D8F8AD
S31500002A60084014F0803F08F10808E7D1E7B2D8F82B
S31500002A7004203946504601F049FC202FC4F30726AE
S31500002A80C4F307454FEA146456D0D8F808203146F7
S31500002A90504601F03BFC202E4AD0D8F80C2029469F
S31500002AA0504601F033FC202D3ED0D8F810202146A8
S31500002AB0504601F02BFC202C32D008F11408B8E760
S31500002AC0002C49DBE3B2FF2B1CD008F10408B0E769
S31500002AD02302F5D5E5B2FF2D36D0D8F804202946D5
S31500002AE0504601F013FC202D56D0C4F30724D8F825
S31500002AF008202146504601F009FC202C50D008F150
S31500002B000C0896E7C4F30729B9F1020F02D0B9F110
S31500002B10040F1ED1504608F1040801F0FDFB88E7BA
S31500002B20504601F0F9FBC8E7504601F0F5FBBCE75B
S31500002B30504601F0F1FBB0E7504601F0EDFBA4E78B
S31500002B40504601F0E9FB8AE7C4F30729B9F1020F01
S31500002B50E0D04846BDE8F087E6B2D8F80420314612
S31500002B60504601F0D3FB202EC4F30725C4F30744D7
S31500002B7022D0D8F808202946504601F0C7FB202D60
S31500002B8016D0D8F80C202146504601F0BFFB202C69
S31500002B900AD008F110084CE7504601F0BDFBA4E747
S31500002BA0504601F0B9FBAAE7504601F0B5FBF0E745
S31500002BB0504601F0B1FBE4E7504601F0ADFBD8E723
S31500002BC02DE9F04F8046D0E96D47D8F86860C068B7
S31500002BD03F1B16F02006026883B04FEAE70750D184
S31500002BE085690369002F43D0DFF8D891083402F1D4
S31500002BF08C0B02F5BC7A21E00BEB810E4FF0010243
S31500002C000AF80120CEF800C0C26A595503EB8501C7
S31500002C100135013215F00305C1F804C0C26207D1BF
S31500002C20C2690369013A1433012A0361C2615CD99E
S31500002C300136B74204F1080418D0026892F9C72198
S31500002C40A2B954E9021C19F80120002ADCD01AF9AD
S31500002C500120002AD0D05BF8212062450BEB810EC3
S31500002C60CCD10136B74204F10804E6D1D8F8B44114
S31500002C7085614023C8F8B841C8F8BC3103B0BDE847
S31500002C80F08FC36A3B44C36292F9C731002BF0D17F
S31500002C908569002D30D00269002FEAD004F10803BF
S31500002CA0A146A44602E00833002D71D053E902E1A3
S31500002CB002EB85065FFA8EF45455013F05F10105D6
S31500002CC071608DF804E005F003051E46EBD14C4615
S31500002CD06146002DCDD1C3698561013B1432012BBC
S31500002CE00261C36163D90C46C3E785610190FFF7B2
S31500002CF003FD019803699BE74FEA970907F003056F
S31500002D00B9F1000F28D00026074601E04E4522D033
S31500002D103B6893F9C7310136EBB93B6922681A70F3
S31500002D20A2685A7022699A70A269DA7062685A605B
S31500002D30E2689A606169FA69D960E1691961013AE4
S31500002D401433012A3B61FA6104F12004DED83846C7
S31500002D50FFF7D2FCDAE7384685B3036893F9C73143
S31500002D60002204F1040C83B98369016954F83270B6
S31500002D705CF83260CF54013201EB8301013303F07A
S31500002D800303AA424E608361EED1D8F8B44170E7DE
S31500002D90C369013B14320021012BC0E9061302610D
S31500002DA04FEA970907F0030502D93446A8E7A94672
S31500002DB001903446FFF7A0FC0198A1E7D8F8B411BA
S31500002DC00C4656E7B0C3030038B50446FFF7F8FED5
S31500002DD0E36899691A6903290FD8DFE801F0191F1A
S31500002DE02C02116821F07F4141F0004140F2FF457D
S31500002DF002F11400116015611861DA69013A0021C7
S31500002E00012AC3E9061223D9002084F8C60138BD79
S31500002E1040F2FF4142F8041B1A61EEE7117841F0D7
S31500002E20802141F4000140F2FF4502F10C001160DF
S31500002E3095601861E1E7118841F0004141F4000115
S31500002E4040F2FF4502F110001160D5601861D4E729
S31500002E501846FFF751FC002084F8C60138BD00BFB4
S31500002E6038B50446FFF7ACFEE36899691A69032989
S31500002E700FD8DFE801F0191F2C02116821F07F41FD
S31500002E8041F0004140F2FF2502F114001160156186
S31500002E901861DA69013A0021012AC3E9061223D929
S31500002EA0002084F8C60138BD40F2FF2142F8041B19
S31500002EB01A61EEE7117841F0802141F4000140F2F9
S31500002EC0FF2502F10C00116095601861E1E7118899
S31500002ED041F0004141F4000140F2FF2502F11000EB
S31500002EE01160D5601861D4E71846FFF705FC00208D
S31500002EF084F8C60138BD00BF2DE9F04103689D6E18
S31500002F0015F0010582B026D1D0E90274BC429E6953
S31500002F10804612D0236830461BB1E2680AB11B69AD
S31500002F201360D4E9012303EB8303216900959B0019
S31500002F3006F098FD2468A742ECD1D4E90123D8F81D
S31500002F401C0021691B1A03EB8303002430469B00F7
S31500002F50009406F087FD02B0BDE8F08103689A6E22
S31500002F60D20720D42DE9F041D0E90264B4429D692C
S31500002F7007460BD0D4E9012303EB83039B0004210E
S31500002F80284606F077FD2468A642F3D1D4E901234A
S31500002F90F9695B1A03EB830328469B00BDE8F04101
S31500002FA0042106F067BD704703689A6ED20726D4DF
S31500002FB02DE9F041D0E90264B4429D69074611D07B
S31500002FC02368042128461BB1E2680AB11B69136015
S31500002FD0A368226903EB83039B0006F04BFD24687C
S31500002FE0A642EDD1F969A36822695B1A03EB830354
S31500002FF028469B00BDE8F041042106F03BBD704722
S315000030002DE9F0410C4682B0064608681746FFF7E0
S31500003010D7FDA2692369032A0FD8DFE802F071778A
S3150000302084021A6822F07F4242F000421A6040F29F
S31500003030FF3103F1140219612261E369F26F013B6A
S315000030400021C4E90613002A41D06369002B32D05F
S3150000305067B90023E3612046FFF74EFB6369A26868
S31500003060E260E3B1186902B0BDE8F081206800F0C3
S3150000307069FAA268E56993686169526809695B1B28
S3150000308003EB830300259B00009506F0EBFC20462E
S31500003090FFF7A4FC0020606202B0BDE8F081D6F81C
S315000030A0843013F0120F02D010690028DBD120699A
S315000030B002B0BDE8F081D6F884309A07204644D4A1
S315000030C0DB063DD5FFF770FF002FC2D0DFE7D4F84F
S315000030D00880D8F800508DB1A36A01333C2BA36257
S315000030E0B3D129462D6825B1884629462D68002D7D
S315000030F0FAD12068FFF796FAC8F80050A562A4E74F
S3150000310040F2FF3243F8042B236196E71A7842F027
S31500003110802242F400021A6040F2FF3103F10C02F1
S315000031209960226189E71A8842F0004242F400025F
S315000031301A6040F2FF3103F11002D96022617CE788
S31500003140FFF70CFF002F84D0A1E7FFF7D5FE002F75
S315000031503FF47FAF9BE700BFB1F934200B6B002A29
S3150000316006DD03EB8202002043F8040B9342FBD1F9
S315000031700023CB86704700BFB1F93400F8B5B1F92A
S315000031803650431EAB420C461646096B06DDA800B8
S315000031906B1C41F825600844E386F8BD103000B288
S315000031A0A0860122800003F075F8B4F9342020636C
S315000031B095420146EBDA00EB820201EB8503A8009B
S315000031C0002743F8047B9342FBD16B1C41F8256032
S315000031D00844E386F8BD00BF2DE9F843D0F87C909B
S315000031E00860002480460D464C61B9F1000F67D097
S315000031F0D9F800304B60202003F048F80646686195
S3150000320000285AD0D9F80800800003F03FF8074696
S315000032103060002851D0D9F80430D8F88820D9F881
S315000032200810716002FB03F2B260736139B1234684
S31500003230204647F82300013399423768F9D102EB5B
S315000032408202D8F81800F7609200042106F0FCFB11
S31500003250386033681B6883B3716872696868336164
S31500003260C6E90621E86040B3D0E9014100231022F7
S31500003270C5E90631C5E90A33A8602C61AA86402053
S3150000328003F004F803462863B8B16A69EAB1126824
S315000032901268B5F93410002906DD03EB8101002020
S315000032A043F8040B8B42FBD100234046EB862946AC
S315000032B0FFF762FF0120BDE8F8830020BDE8F88330
S315000032C01146FFF76BF96860CCE7D8F88420696887
S315000032D012F0120F02D00A69002ADAD14A68D8E73A
S315000032E070B504464FF4EA7002F0D0FF0546002898
S315000032F056D0002602224FF40013C0E90666C0E944
S3150000330013668466A0F8C66182644365FEF7DCFC3A
S315000033106106C5E90800C5E90A0043D4702002F039
S31500003320B5FFCC220023C5F888206207C5E90D3316
S31500003330C5E90F33C5E91B33C5E90433C5E90233D3
S3150000334085F8C63185F8C4316B646B67A5F87830AB
S315000033506B6054BF052304230121EB652307286313
S31500003360696603D5EB6D23F00403EB6500222A663C
S31500003370EA6705F1880305F2771105F5BA7443F893
S31500003380042F9C4201F8012FF9D1074BC5F8802084
S31500003390196885F8C8210822296085F8C5211D60AD
S315000033A0284670BD3046BCE79C0EFE1F70B504462D
S315000033B000F07EFFA06100285FD004F2771304F5C9
S315000033C0D971002203F8012F8B42FBD1E56F7DB145
S315000033D0D4F888102046FFF7E1F8D4F88810286062
S315000033E006462046FFF7DAF82B6830601A68136045
S315000033F0D4F888202046114603F0E0FAD4F8882055
S3150000340020611146204603F0D9FA23696061D3B1E1
S31500003410C8B10025C4E90233606065634FF40070EB
S3150000342002F034FF174B84F8C9514022C4E96D00FD
S31500003430C4E96F23A0690A2106F03AFA38B90020D8
S3150000344084F8C60170BD012084F8C60170BDFF2353
S31500003450A0692A460A2106F013FAA0692A460A211B
S3150000346006F01AFAFF2808BF01234FF0000008BF34
S3150000347084F8C93184F8C601E4E7052084F8C6015A
S3150000348070BD00BFC12B000038B5836904463BB34D
S31500003490C36F2BB119680B6800221A60FFF7C2F8D8
S315000034A0D4E904150023C4E9043311B1204603F01E
S315000034B0C1FA1DB12946204603F0BCFA0025D4F80E
S315000034C0B4016560C4E90255656302F0E1FEC4E932
S315000034D06D55A06900F012FF84F8C601A56138BDDC
S315000034E080F8C631184638BD38B58569044615B129
S315000034F0FFF7CAFF0546124B1A461B68A34204D0C3
S31500003500002BF9D10225284638BD2368E1691360EE
S315000035100023236229B12046FEF780FCE1690029D9
S31500003520F9D1E06F08B102F0B3FE206B08B102F0EA
S31500003530AFFE00232046236302F0AAFE284638BDCC
S315000035409C0EFE1F80697047B8B338B5436E8B4238
S315000035500D46044614D0082B1CD0082914D003F0BD
S3150000356047FB626A92F80E31002143F0010382F8AC
S315000035700E3184F8C611082D656682F80E3115D015
S31500003580002084F8C60138BD426A92F80E3143F035
S315000035900103F0E7426A616692F80E3143F00103D7
S315000035A082F80E3103F01EFB082DE9D1204603F008
S315000035B013FB002084F8C60138BD0220704700BF07
S315000035C00023A0F86C1080F8C6311846704700BF7B
S315000035D038B110B5044600F0A9FE002084F8C601F3
S315000035E010BD0220704700BF10B5C468FFF7E8FAA7
S315000035F0636822695B689A4201D0012010BD606948
S315000036000028FBD0026803691068C01AB0FA80F07F
S31500003610400910BD2DE9F84F1E46DDE90A8C0C9BCA
S31500003620D3F810411CF0010F054608FB08F00CBF4B
S31500003630A3464FF0000B06FB06001CF0020F08BF66
S31500003640A2460F46914618BF4FF0000A02F09AFDB7
S315000036500D9B240194FBF0F403B11C60C8F100003B
S315000036600C9B04FB00F004FB06F4D3F810310011A8
S3150000367024113E447F4200FB07F200FB09F104FBE4
S3150000368006F6C84404FB071704FB19295B0800FB70
S3150000369018680AEB281603EB29130BEB2717414290
S315000036A0624268602862AE61AC602C612B60EF609C
S315000036B06961EA61BDE8F88F2DE9F04F83B0DDE975
S315000036C00C7414F0010F07FB07FC054618BF4FF0FA
S315000036D0000903FB03C008BF4FF4803914F0020F42
S315000036E0019393460E9E884614BF4FF0000A4FF48E
S315000036F0803A02F047FD4FF48012019B92FBF0F0F6
S3150000370006B130607E4200FB06F63611C8F1000CA9
S3150000371000FB03F00411984406FB0CF304FB1B3377
S3150000372004FB08F85F4406FB0BFB06FB178704FB4C
S315000037300CBB1B110AEB271703F5004309EB2B12F1
S31500003740704261426E602E62AF61AC602C612B608C
S31500003750EA606861E96103B0BDE8F08F2DE9F047E2
S31500003760DDE9085414F0010F14BF4FF0000E4FF4BA
S31500003770803E14F0020F14BF4FF0000C4FF4803C53
S31500003780002B0A9E78DB002D22DBAB4200F39880EB
S315000037901F0454190B4497FBF5F7240307FB03F3A7
S315000037A007FB02F904EB231407FB01F34FEA29197F
S315000037B052421B11C9EB0139C3EB0232002E00F055
S315000037C0C2803560DFF88C817D424FF4803622E07E
S315000037D0C5F1000A9A4502EB05042EDA2D045F4274
S315000037E095FBF7F808FB02F508FB04F408FB01F962
S315000037F052422411CF184FEA29192D11C9EB02396B
S31500003800C4EB0734A5EB013206B13360514DC8F164
S3150000381000064FF4803709F5004172446444C0E95C
S315000038200187C0E90476C0E907580160C260846177
S31500003830BDE8F087C5F1000A54191F040B4497FB35
S31500003840FAF707FB02F907FB01F8240307FB03F36A
S315000038504FEA291949424FEA2818C4EB2314C9EB49
S315000038600139C8EB0232002E4AD0C6F800A07D42CC
S31500003870384E4FF48038CEE7002D47DB5C42AC4231
S3150000388020DDCC184FEA05482403154498FBF3F8CD
S31500003890644208FB01F908FB05F54FEA29190903FB
S315000038A0A4EB251408FB02F5C9EB023901EB25123E
S315000038B006B13360274FC8F100064FF48035AAE7FA
S315000038C054198BE754191F040B4497FBF5F707FBB4
S315000038D003F8230307FB02F903EB281407FB01F3A4
S315000038E04FEA291952421B11C9EB0139C3EB0232C7
S315000038F04EB33560DFF85C807D424FF480368AE750
S315000039007D42A6F580364FF4803884E7AB4291DAE3
S31500003910CC184FEA05482403154498FBF3F8644293
S3150000392008FB01F908FB05F54FEA29190903A4EB81
S31500003930251408FB02F5C9EB023901EB2512002E0E
S31500003940B8D05B42B5E7DFF80C807D424FF4803695
S3150000395061E700BF0000FFFFF0B4002BDDE904655E
S3150000396028DB002E13DBB34233DD3604120396FB4D
S31500003970F3F303FB01F1C2EB21125B424FF48036F5
S3150000398005B101328660C0E90023F0BC70475C18BF
S3150000399071423244994224B212B22EDA360412032C
S315000039A096FBF3F303FB04F4C2EB24125B424FF4E1
S315000039B08036E5E7002E2CDB5C42B44213DD36048C
S315000039C096FBF3F303FB01F42411204EC4EB023201
S315000039D0D6E71B0493FBF6F606FB02F73F111B4BDB
S315000039E0C7EB0132CCE71B0493FBF6F606FB02F2AB
S315000039F01211164BC2EB0132C2E71B04240393FBE0
S31500003A00F6F606FB02F2C4EB221276424FF480333E
S31500003A10B6E75C183244B34224B212B20BDD1B0483
S31500003A20240393FBF6F606FB02F1C4EB2112764261
S31500003A304FF48033A4E7360496FBF3F303FB04F15B
S31500003A400911024EC1EB02329AE700BF0000FFFFE8
S31500003A502DE9F043DDE907571C1ED7F810613ADB64
S31500003A60002D1FDBAC424ADD2D0495FBF4F484FBEC
S31500003A70068904FB01F34FEA1841120341EA0941A2
S31500003A80C2EB23134942344606EBD672B7F91450FB
S31500003A9084601B0193FBF5F303EB6203C0E900317D
S31500003AA0BDE8F083C5F1000E63182A44A64519B295
S31500003AB012B2D9DB240494FBF5F484FB068904FBDB
S31500003AC002F54FEA18440B0344EA0944C3EB2513F5
S31500003AD064423146D8E7002D32DB6342AB421FDD3C
S31500003AE02D0495FBF4F404FB01F384FB0645210C3D
S31500003AF01B11C3EB023341EA05417442C4E72404B7
S31500003B0094FBF5F404FB02FC84FB06894FEA2C1CAB
S31500003B104FEA1844CCEB013344EA09447142B3E757
S31500003B20240494FBF5F404FB02F384FB06891B11C1
S31500003B304FEA1844C3EB013344EA09447142A3E750
S31500003B4063182A44AC4219B212B2C9DD240494FBAC
S31500003B50F5F484FB068904FB02F34FEA18440903D3
S31500003B6044EA0944C1EB2313644231468CE700BFA3
S31500003B7070B4DDE90364002E03DA1944B51809B2FE
S31500003B802AB206FB01F103FB121276421202360339
S31500003B901B0304B1013202F50042C0E9002683602E
S31500003BA070BC70472DE9F84FDDE90A45002C8046C8
S31500003BB08A4691469B4605DA9A44A1440FFA8AFA48
S31500003BC00FFA89F904FB04F00BFB0B0002F0DAFA9A
S31500003BD064424FF48017B7FBF0F606FB04F4CAF113
S31500003BE00002241106FB0BF304FB02F21B1103FB7C
S31500003BF01922121105B1013202F50042C8E900246A
S31500003C00C8F80830BDE8F88F836810B404685A42D3
S31500003C1001FB034101605DF8044B8260704700BF01
S31500003C200023C0E90033C0E90233C0E9043370471A
S31500003C302DE9F8430C46497E089E9146CA07804600
S31500003C401D460DD5E069C30705D5052D40F2E18176
S31500003C503046BDE8F883042DFAD826F4000602356E
S31500003C608A0740F1BF80606BC30740F1C681052D0E
S31500003C70EED8B9F90020B4F94870A16BB4F94A300E
S31500003C80B9F902C0BF1AE26B01FB07F7A3EB0C03FD
S31500003C9002FB03731B11070748BF0133C70648BF62
S31500003CA0A3F58033012710F0040F06F0807207FA9F
S31500003CB005F708D04FF4007CA3F500430CFA05FC89
S31500003CC0013B47EA0C07400606D54FEA550C4FF470
S31500003CD0003000FA0CF00743002A3FD1D8E96EC243
S31500003CE05B42013A0CF10800C8F8B801002ACCF88A
S31500003CF0043005F10403CCF80030C8F8BC2106DC1A
S31500003D004046D8F8C0319847D8E96E02A16B531ED9
S31500003D1005F10A0C00F10802002BC8F8B821416031
S31500003D20C0F800C0C8F8BC3105DCD8F8C031404640
S31500003D309847D8E96E23E06B013B02F1080C05F1C8
S31500003D401001002BC8F8B8C1C2E90010C8F8BC3190
S31500003D503FDCD8F8C031404698473AE0D8E96E02D1
S31500003D605B429B01013A00F1080CC8F8B8C1002A71
S31500003D70436005F104030360C8F8BC2106DCD8F8EB
S31500003D80C03140469847D8E96EC2A16B013A890115
S31500003D900CF1080005F10A03002AC8F8B801CCE9BD
S31500003DA00031C8F8BC2105DC4046D8F8C031984738
S31500003DB0D8E96E02E36B013A990100F1080C05F1AE
S31500003DC01003002AC8F8B8C1C0E90031C8F8BC2100
S31500003DD0BFDD636B3E435F0654BF26F4000626F440
S31500003DE040060135A37D980740F18180627E510728
S31500003DF07DD5E06CC20740F1BF81052D3FF628AFA7
S31500003E00B9F90020B4F96070216DB4F96230B9F9DE
S31500003E1002C0BF1A626D01FB07F7A3EB0C0302FB9E
S31500003E2003731B11070748BF0133C70648BFA3F535
S31500003E308033012710F0040F06F0807207FA05F7A9
S31500003E4008D04FF4007CA3F500430CFA05FC013BB7
S31500003E5047EA0C07400606D54FEA550C4FF40030EA
S31500003E6000FA0CF00743002A40F0A181D8E96EC29F
S31500003E705B42013A0CF10800C8F8B801002ACCF8F8
S31500003E80043005F10403CCF80030C8F8BC2106DC88
S31500003E904046D8F8C0319847D8E96E02216D531EC6
S31500003EA005F10A0C00F10802002BC8F8B8214160A0
S31500003EB0C0F800C0C8F8BC3105DCD8F8C0314046AF
S31500003EC09847D8E96E23606D013B02F1080C05F1B5
S31500003ED01001002BC8F8B8C1C2E90010C8F8BC31FF
S31500003EE040F3A1813E43A37D26F400060135590720
S31500003EF07FF5AEAE637E1A077FF5AAAE606EC30786
S31500003F0040F14181052D3FF6A3AEB9F90020B4F981
S31500003F107870B9F902C0B4F97A30A16EBF1AE26EB0
S31500003F2001FB07F7A3EB0C0302FB03731B11070747
S31500003F3048BF0133C70648BFA3F58033012710F0F9
S31500003F40040F06F0807207FA05F708D04FF4007CDC
S31500003F50A3F500430CFA05FC013B47EA0C074006B3
S31500003F6006D54FEA550C4FF4003000FA0CF0074323
S31500003F70D8F8B801002A40F05B81D8F8BC21C3F11B
S31500003F80000C013A00F10803C8F8B831002AC0F85D
S31500003F9004C005F1040CC0F800C0C8F8BC2106DC5A
S31500003FA0D8F8C03140469847D8E96E32A16E013A3A
S31500003FB003F1080005F10A0C002AC8F8B801596097
S31500003FC0C3F800C0C8F8BC2105DC4046D8F8C031AB
S31500003FD09847D8E96E02E16E013A103500F1080300
S31500003FE0002AC8F8B831C0E90051C8F8BC2140F32E
S31500003FF05A813E4326F400062AE6042D3FF628AEF3
S31500004000A37D980726F4000605F102057FF56FAF3C
S31500004010ECE6B9F90020B4F93070216AB4F932300F
S31500004020B9F902C0BF1A626A01FB07F7A3EB0C03DA
S3150000403002FB03731B11070748BF0133C70648BFBE
S31500004040A3F58033012710F0040F06F0807207FAFB
S3150000405005F708D04FF4007CA3F500430CFA05FCE5
S31500004060013B47EA0C07400606D54FEA550C4FF4CC
S31500004070003000FA0CF00743002A3DD1D8E96EC2A1
S315000040805B42013A0CF10800C8F8B801002ACCF8E6
S31500004090043005F10403CCF80030C8F8BC2177DD04
S315000040A0531E05F10A0C00F10802002BC8F8B821CE
S315000040B04160C0F800C0C8F8BC3171DD606A013BE0
S315000040C002F1080C05F11001002BC8F8B8C1C2E9CD
S315000040D00010C8F8BC314ADDE3695906617E46EA3C
S315000040E0070654BF26F4000626F440068A0705F1A3
S315000040F001057FF577AEB6E5D8E96E025B429B0116
S31500004100013A00F1080CC8F8B8C1002A436005F16D
S3150000411004030360C8F8BC2106DCD8F8C031404669
S315000041209847D8E96EC2216A013A89010CF1080064
S3150000413005F10A03002AC8F8B801CCE90031C8F82D
S31500004140BC2105DC4046D8F8C0319847D8E96E0254
S31500004150636A013A990100F1080C05F11003002A7F
S31500004160C8F8B8C1C0E90031C8F8BC21B4DCD8F839
S31500004170C03140469847AFE7042D3FF669AD26F4B7
S3150000418000060235B3E6042D98BF26F400065FE567
S315000041904046D8F8C0319847D8E96E02216A7FE7D1
S315000041A0D8F8C03140469847D8E96E2386E7D8E963
S315000041B06E025B429B01013A00F1080CC8F8B8C1D7
S315000041C0002A436005F104030360C8F8BC2106DC3D
S315000041D0D8F8C03140469847D8E96EC2216D013AF9
S315000041E089010CF1080005F10A03002AC8F8B80194
S315000041F0CCE90031C8F8BC2105DC4046D8F8C0310E
S315000042009847D8E96E02636D013A990100F1080CEE
S3150000421005F11003002AC8F8B8C1C0E90031C8F892
S31500004220BC213FF75FAED8F8C0314046984759E603
S31500004230D8F8BC215B429B01013A00F1080CC8F892
S31500004240B8C1002A436005F104030360C8F8BC2125
S3150000425006DCD8F8C03140469847D8E96EC2A16E50
S31500004260013A89010CF1080005F10A03002AC8F891
S31500004270B801CCE90031C8F8BC2105DC4046D8F8C5
S31500004280C0319847D8E96E02E16E013A10358901CE
S3150000429000F10803002AC8F8B831C0E90051C8F88F
S315000042A0BC213FF7A6AED8F8C03140469847A0E6F5
S315000042B038B50546084605F09DFA0446B8B1012210
S315000042C0114605F0E9FA420144BF012385F8C831D9
S315000042D08303C5F880000CD5EB6D31220121204601
S315000042E005F0CEFA204605F0B7FBC5F88400204657
S315000042F038BDAB6E43F00103AB66EDE708B505F0DC
S31500004300ABFA012814BF0220002008BD13460A4656
S31500004310012105F0B5BA00BF10B5044600220121FF
S31500004320204605F0B9FAC307F8D410BD38B5836E38
S3150000433084690546D8070AD501210022204605F0E2
S31500004340ABFA8107F8D138BDAB6E9A0707D50022C4
S315000043500121204605F0A0FA0307F5D4F3E7C822A9
S315000043600421204605F014FBF1E700BF70B5846E0A
S315000043700B6BE40705460BD41A68AAB190F9C9116C
S31500004380806991B1BDE870403222012105F078BA0A
S3150000439092B94C6814B907E024682CB161682846C4
S315000043A0FEF740FB0328F7D170BD1346BDE8704009
S315000043B03222012105F064BABDE870401968FEF7A3
S315000043C031BB00BF2DE9F04F2DED028BA9B093460E
S315000043D0BDF9D040BDF9D450BDF9D880379F0894B7
S315000043E0A61AA5EB030956EA0902099500F03C82D4
S315000043F091F8D620069208F10F0A0D46012A4FEAD7
S315000044006A0104460C91079100F04F8217F400529E
S315000044100A9240F02F820A9A1392002EBDF81CA031
S3150000442040F33D82089AABEB0A010F32524421F069
S315000044300F0122F00F02B9F1000FADF86010ADF8D0
S31500004440642040F34482099A02F10F015144A3EB20
S315000044500A0221F00F0122F00F02ADF86610ADF846
S31500004460622018A920460B9304F00AFC002800F0ED
S31500004470FB810B9BBDF86210BDF8602015919BB2C5
S315000044800E935B1A1BB2ABEB020B0D93B8F12F0F19
S315000044900FFA8BF30B9304DC069B022B08BF012358
S315000044A0069307F00303032B95F8D53003F00303B7
S315000044B000F08B82032B00F039841CAB08EE103A17
S315000044C01846B8F11F0F17AB0293CDE900970D9A66
S315000044D00B99334640F30A82FFF7EEF81C9B03EB79
S315000044E0C8231C934FEA08331193069B012B00F057
S315000044F0D58207F001030F9307F0020312932946B2
S31500004500204602F0C7FBD5F828311093B9F1000F09
S3150000451040F35482F60FAB7D109ADFF87CB902F4B3
S31500004520185213F0060F42EA0B0B14D0069B0A9A98
S31500004530CDF800B0022B14BF02230523002A18BFB2
S31500004540052318AA29462046FFF772FB10F4000F30
S31500004550834608BF002695F8D43099072CD595F8E0
S315000045600E210B990D98A5F8901042F00802212112
S3150000457085F80E211A07A5F89200E96740F1B18285
S31500004580DDE920205242D5F8D0101201000192FB3D
S31500004590F1F290FBF1F0C5E92002D5F8CC205B07DB
S315000045A04FEA0230C5F8880006D5179B1B0193FB1E
S315000045B0F1F31344C5F8CC30334618AA29462046F1
S315000045C001F0D6FE334618AA2946204603F0B4FC6D
S315000045D0069B022B00F0FF810F9B002B00F05882F8
S315000045E00023149300234BF4806B0E93B80500F15F
S315000045F06B831F9BB9F1000F03F50043C8BF01335E
S315000046001F93129B83B10E9B002B00F079824BF413
S31500004610806B790500F16A83229BB9F1000F03F5DF
S315000046200043D8BF0133229317F4C05F15D03A0573
S3150000463005D51FAB93E80700389B83E80700FB040A
S3150000464006D522AB93E80700389B0C3383E80700B6
S3150000465018AB03CB399B18605960002E40F00282DC
S31500004660B0460A9BA3B1139BB80503F5803906D55E
S315000046703A9BD3E9002352EA030140F00F847A05FE
S3150000468006D53A9BD3E9022352EA030140F0A283FE
S31500004690D4E96E73013B1C9A07F108000421002B34
S315000046A0C4F8B801C7E90012C4F8BC3105DCD4F877
S315000046B0C03120469847D4E96E03013B1D9900F1AD
S315000046C008020A27002BC4F8B821C0E90071C4F813
S315000046D0BC3105DCD4F8C03120469847D4E96E23B6
S315000046E0013B1E9902F108001027002BC4F8B801FF
S315000046F0C2E90071C4F8BC3105DCD4F8C0312046EB
S315000047009847D4E96E030E9A013B00F10807002A88
S3150000471000F0F2801F9AC4F8B8710821002BC0E996
S315000047200012C4F8BC3105DCD4F8C03120469847E5
S31500004730D4E96E73013B209A07F108010E20002B85
S31500004740C4F8B811C7E90002C4F8BC3105DCD4F8D6
S31500004750C03120469847D4E96E13013B219A01F1F6
S3150000476008001427002BC4F8B801C1E90072C4F888
S31500004770BC3105DCD4F8C03120469847D4E96E0335
S31500004780013B229A00F108010527002BC4F8B81155
S31500004790C0E90072C4F8BC3105DCD4F8C03120464B
S315000047A09847D4E96E13013B239A01F108000B27C1
S315000047B0002BC4F8B801C1E90072C4F8BC3105DCAD
S315000047C0D4F8C03120469847D4E96E03249A013BB9
S315000047D000F108011127002BC4F8B811C0E90072D6
S315000047E0C4F8BC3105DCD4F8C03120469847D4E97A
S315000047F06E13013B119F01F108021620002BC4F82D
S31500004800B821C1E90007C4F8BC3105DCD4F8C031D1
S3150000481020469847D4E96E23013B002102F10800A7
S315000048208B42C4F8B801C2E9001BC4F8BC3103DCF2
S31500004830D4F8C031204698470C9A079B134403F1DD
S315000048400F0A4FEA2A1A18A952462046002E50D0BF
S3150000485002F070FD069B022B00F05781012029B063
S31500004860BDEC028BBDE8F08F002029B0BDEC028BB9
S31500004870BDE8F08F95F8D720042A00F02781B5F916
S31500004880D82002EB680202EB820A4AF38F010791F5
S315000048901203002EBDF81CA013923FF7C3AD089972
S315000048A00BF10F02A1EB0A01C0E507F00302032A90
S315000048B03FF4ACAD01EB410AC1EBCA0A4AF30F1251
S315000048C0079217F400520A923FF4A5ADD2E7099A6F
S315000048D003F10F015144A2EB0A0221F00F0122F06D
S315000048E00F02ADF86610ADF86220BAE5FEF736FFA6
S315000048F0F4E502F095FCADE71F9AC4F8B8710521FE
S31500004900002BC0E90012C4F8BC3105DCD4F8C03174
S3150000491020469847D4E96E73013B209A07F10801B7
S315000049200B20002BC4F8B811C7E90002C4F8BC314B
S3150000493005DCD4F8C03120469847D4E96E13013B14
S31500004940219A01F108001127002BC4F8B801C1E92A
S315000049500072C4F8BC3105DCD4F8C0312046984753
S31500004960D4E96E03013B229A00F108010827002BC7
S31500004970C4F8B811C0E90072C4F8BC3105DCD4F83B
S31500004980C03120469847D4E96E13013B239A01F1C2
S3150000499008000E27002BC4F8B801C1E90072C4F85C
S315000049A0BC3105DCD4F8C03120469847D4E96E0303
S315000049B0249A013B00F1080114270CE700F0048259
S315000049C0002ED4BF00260126A5E5032B00F0C882E1
S315000049D00023069371E508F110080F9B4FEA680261
S315000049E01492002B00F05881BDF86030002E40F084
S315000049F0D0810898BDF86210C31A0998411A1BB2F3
S31500004A0009B203EB420EBEF1000F4FEA42009C468C
S31500004A1040F3A3820022069201220E920A18002A6F
S31500004A2013DDBDF96420BDF960E0ACEB000CA2EB30
S31500004A300E02944509DABDF966C0BDF962E00A1AAC
S31500004A40ACEB0E0C6245C0F240830F9B002B3FF48B
S31500004A50D8AD0E9B002B3FF4C5AD01234BF4005B94
S31500004A600E93C3E5BDF96230BDF96680A8EB030875
S31500004A704FEA281818EE100A4146FFF7C5F84146D6
S31500004A801FA8FFF7C1F8414622A8FFF7BDF8E8E5E1
S31500004A90129B002B32D114930E93C5E517F0010338
S31500004AA00F9306D1119A1F9BA2F5803203EB620386
S31500004AB01F9317F0020312937FF421AD119A229BE4
S31500004AC0A2F5803203EB6203229318E5079A02EB04
S31500004AD0820A4FEA68024AF38F0112030791139282
S31500004AE09BE4DDE92002D5F8D0100001120190FB0D
S31500004AF0F1F092FBF1F2C5E920024EE50F9B14930B
S31500004B0000234BF4005B0E9383E5BDF82070DDF8BF
S31500004B1050B0BDF824901FFA8BF307F10F0119442A
S31500004B20F81A09F10F021A4421F00F0120F00F00C4
S31500004B30A9EB030322F00F0223F00F03ADF86C106C
S31500004B40ADF868001AA92046ADF86E20ADF86A30B7
S31500004B5004F096F800283FF481AEBDF86A20BDF84F
S31500004B606830CDF804B0A9EB020212B24FF000098A
S31500004B70FB1A00921BB24A4629462046CDE9039904
S31500004B80CDF80890FDF70CFB109BC24F03F4007C98
S31500004B901AAA4B46294620464CEA070701F0E8FBCD
S31500004BA04B461AAA2946204603F0C6F9AB7D13F0F8
S31500004BB0060F40F07782BDF96820002E00F0F181E3
S31500004BC0249DBDF96000BDF96A30BDF96210121A64
S31500004BD05B1A6D421211C8EB23132495DDE92201FD
S31500004BE0404202FB1108D4F8BC21D4F8B86105FB99
S31500004BF01383013A03F1011306F108000625002A82
S31500004C00C4F8B801C6E90053C4F8BC2106DC204646
S31500004C10D4F8C0319847D4E96E022399531E4D4209
S31500004C200C2200F10801002BC4F8B811C0E90025D8
S31500004C30C4F8BC3105DCD4F8C03120469847D4E925
S31500004C406E13249A013B5042122501F10802002BF3
S31500004C50C4F8B821C1E90050C4F8BC3105DCD4F869
S31500004C60C03120469847D4E96E23013B002102F16A
S31500004C7008008B42C4F8B801C2E90017C4F8BC3179
S31500004C8003DCD4F8C031204698474AF30B121AA920
S31500004C90204602F0C5FAE1E5002E40F083800D992A
S31500004CA0129B002B40F093804BF4005B0B9BDDF8CE
S31500004CB02CC003EB4203002B4FEA420040F346812F
S31500004CC000220B9B0E92A9E63A9B0B995B68002289
S31500004CD0CDE900323A9B0D9A1B681FA84FEA4A0A93
S31500004CE0FEF746FF0FFA8AF307938AE43A9BBDF86C
S31500004CF06220D8680F900998BDF860109B68821AE8
S31500004D000898411A0F984FF0010C404200905B4200
S31500004D1012B209B2CDF804C022A8FEF729FF079BFC
S31500004D204FEA430A0FFA8AF307937DE41CAB184651
S31500004D3008EE103A17AB0D9A0B990393CDE901755E
S31500004D403346CDF80090FEF765FCD5F810311C9976
S31500004D50069808FB03F201EB621101281C914FEA49
S31500004D6022114FEA621228D117F001000F9002D1EA
S31500004D701F9810441F9017F00200129002D122983B
S31500004D80024422925B08A3F580330B441193FFF78C
S31500004D90B6BB0898BDF86610C31A0998091A1BB263
S31500004DA009B22EE6BDF866301598BDF862101844B3
S31500004DB0431A0E995B1A19B272E707F001020F92B5
S31500004DC007F002021292DDE74E46FFF7A4BB00236E
S31500004DD006936BE7BDF862000092099ABDF8601071
S31500004DE0121A0898411A10984FF0000C00F4805ED1
S31500004DF04EEA0B0E5B4212B209B225A8CDF804C0EA
S31500004E004EF0080BFEF7CEFE002E40F059813B0413
S31500004E1040F10B81D4F8BC31D4F8B8212599013B77
S31500004E2002F1080049440727002BC4F8B801C2E97B
S31500004E300071C4F8BC3105DCD4F8C031204698476F
S31500004E40D4E96E03013B269A00F108010D27002BD9
S31500004E50C4F8B811C0E90072C4F8BC3105DCD4F856
S31500004E60C03120469847D4E96E13013B279A01F1D9
S31500004E7008071320002BC4F8B871C1E90002C4F872
S31500004E80BC313FF707ACD4F8C03120469847FFF74E
S31500004E90FFBB00BF450840001380C0001099009278
S31500004EA001F400604FF0000C40EA0B0E0D9A0B99CE
S31500004EB0CDF804C05B4225A84EF0040BFEF772FE47
S31500004EC0002E40F0F8807904D4F8B82177D4D4F8CD
S31500004ED0BC312599013B494402F10800C4F8B801E8
S31500004EE0002B51604FF006011160C4F8BC3105DC9F
S31500004EF0D4F8C03120469847D4E96E03013B269981
S31500004F0000F108024FF00C0C002BC4F8B821C0E9E0
S31500004F1000C1C4F8BC3105DCD4F8C031204698473E
S31500004F20D4E96E2302F108002799C4F8B801013BC1
S31500004F301220002BC2E90001C4F8BC313FF79FAB39
S31500004F40D4F8C03120469847FFF799BB129B002B37
S31500004F507FF4D6AD0E93FFF767BB002306937CE57F
S31500004F601CAB184608EE103A17AB0D9A0B99039333
S31500004F70CDE901753346CDF80090FEF74BFBD5F829
S31500004F8010311C9A08FB03F102EB61121C9207F028
S31500004F9001020F9207F002021292002209110692F4
S31500004FA0F0E6BDF96A30BDF96010BDF96280249D56
S31500004FB0521AA3EB080812114FEA28130EE6D4F88A
S31500004FC0BC312598013BA9EB000002F10801C4F8A9
S31500004FD0B811002B50604FF006001060C4F8BC31C9
S31500004FE005DCD4F8C03120469847D4E96E13269ADA
S31500004FF0013B50424FF00C0C01F10802002BC4F8A3
S31500005000B821C1E900C0C4F8BC3105DCD4F8C03110
S3150000501020469847D4E96E23279902F1080C013BF4
S3150000502049421220C4F8B8C183E7D4F8BC31D4F899
S31500005030B801259A013B00F10801A9EB02020727F6
S31500005040002BC4F8B811C0E90072C4F8BC3105DC05
S31500005050D4F8C03120469847D4E96E13269A013B0E
S3150000506050420D2701F10802002BC4F8B821C1E90E
S315000050700070C4F8BC3105DCD4F8C031204698472E
S31500005080D4E96E232799013B494202F10807132010
S31500005090002BC4F8B871C2E90001C4F8BC313FF76F
S315000050A0F9AAF0E60097294603231AAA2046FEF736
S315000050B0BFFD07467FE525A84146FEF7A5FD02E7A9
S315000050C025A84146FEF7A0FDA1E614980022CDE9E9
S315000050D00010CDE903220292204602222946FDF75E
S315000050E05FF8109B03F4006040EA0B0040F4801B5D
S315000050F04BF0840BA9E400BF2DE9F04F89B01FFAED
S3150000510082F9BDF94850DDF850809FB21035C5F3DD
S315000051104F0409F10F0307F10F0223442244A9EBC0
S31500005120040C3C1B24F00F0423F00F032CF00F0C8F
S3150000513022F00F020E4606A9ADF81A40ADF81C3053
S31500005140ADF818C0ADF81E20044603F099FD10B95D
S3150000515009B0BDE8F08FBDF81A20BDF81830D6F8B2
S3150000516028A1BF1A6D1000223FB2A9EB0303CDE9B7
S315000051700322019500971BB20292314620460AF49B
S31500005180007AFDF70DF84AF4800343F041030093DB
S3150000519006AA022331462046FEF74AFD139B0F3529
S315000051A007462D09002B6DD0159BBDF91820B3F9C4
S315000051B00090B3F902A0BDF91A30AAEB030A139BBB
S315000051C0A9EB0209DA074FEA29194FEA2A1A00F170
S315000051D089804FF0020B139B9B0755D5D8E9032313
S315000051E0C2F58032D8F8141009FB0329D4E96E20E1
S315000051F001FB0A910131013802F1080CC4F8B8C16B
S31500005200002851604FF007011160C4F8BC0107DCAB
S31500005210D4F8C03120469847D4E96EC0D8F810308B
S3150000522001385B420CF108020D210028C4F8B821B0
S31500005230CCE90013C4F8BC0105DC2046D4F8C03123
S315000052409847D4E96E20D8F8143001385B4202F151
S31500005250080C13210028C4F8B8C1C2E90013C4F829
S31500005260BC0103DCD4F8C03120469847BBF1030FDC
S3150000527047F4805747F0080714BF4FF0020B4FF072
S31500005280040B01E04FF0020B00975B4606AA31467D
S315000052902046FEF7CDFCD4E96E230021013B02F146
S315000052A008078B42C4F8B871C2E90010C4F8BC31D3
S315000052B003DCD4F8C0312046984706AA314620467A
S315000052C0002301F055F83146002306AA204602F0D5
S315000052D033FE20462A4606A901F0A2FF012009B0A6
S315000052E0BDE8F08FD8E90010D4E96EC3D8F80820DD
S315000052F0C1F5803109FB001102FB0A120132013BA4
S315000053000CF10801C4F8B811002BCCF804204FF0BA
S315000053100602CCF80020C4F8BC3107DCD4F8C03152
S3150000532020469847D4E96E13D8F80400013B424260
S315000053304FF00C0C01F10800002BC4F8B801C1E9CC
S3150000534000C2C4F8BC3105DCD4F8C0312046984709
S31500005350D4E96E03D8F80820013B524200F1080C4C
S315000053601221002BC4F8B8C1C0E90012C4F8BC3140
S3150000537003DCD4F8C0312046984747F4006747F06D
S3150000538004074FF0030B26E72DE9F04F2DED028BB6
S31500005390A7B0BDF9C860BDF9CCB0BDF9D040079340
S315000053A0B51AABEB030309940C92BDF9D4400F96E2
S315000053B055EA0302CDE9106B089406D1002528466C
S315000053C027B0BDEC028BBDE8F08F03FB03F3044668
S315000053D005FB053091F8D63006938A4600F0D2FEDA
S315000053E007994FF0807393FBF0F2089B099814928B
S315000053F0A1EB0B0602FB05F502FB06F62D121A467B
S3150000540005FB00F705FB02F2361206FB00F801EB7E
S3150000541067494FEA674E5014A1EB67470BEB6241B1
S31500005420ABEB62420A920C9A0E9102EB684106FBC4
S3150000543003F30D910F994FEA684CA2EB68485A1492
S31500005440129201EB6342A1EB6341069B0B91022B87
S3150000545000F07482369B03F00303032B00F07E8278
S31500005460069B012B00F059830D9B12929342A8BF15
S31500005470134619460B9B4345A8BF43469942A4BF12
S3150000548023F00F0319B20D9BBCBF21F00F0109B227
S315000054909342B8BF134618460B9BADF858104345C8
S315000054A0B8BF43460E999842CCBF00F10F030F33A5
S315000054B04945A8BF494608460A9923F00F03B94251
S315000054C01BB2A8BF3946ADF85C300E9B8842B4BF0C
S315000054D020F00F0121F00F014B45B8BF4B4618468F
S315000054E00A9BBB42B8BF3B469842CCBF00F10F03B4
S315000054F00F3309B223F00F03ADF85A101BB216A9E9
S315000055002046ADF85E3003F0BBFB00283FF456AFF3
S31500005510BDF858100F9BBDF85AC01B95581A079B2B
S315000055201F96A3EB0C0E00B2ABEB0C0305FB00F0D1
S315000055301BB206FB13030C981B11401A00B203F5AD
S3150000554000430FFA8EF213901D939AF8D5301592F8
S3150000555006FB02F0139A03F0030305FB1200032B6C
S31500005560129A0D9BC5F100051E95A3EB0101A3EB55
S3150000557002050E9B4FEA201000F58030C6F10006AA
S31500005580A9EB0C02A9EB030920AB1A9008EE103A1E
S315000055901C96184600F07582002612B209B22B46F8
S315000055A00196CDF80090FEF7D7F90A9BBDF85A2070
S315000055B0BDF858100196DB1B00930B9BBA1AA8EB9B
S315000055C0010123AE12B2A3EB080309B23046FEF77F
S315000055D0C3F9209A239B02F5004203F5004320926B
S315000055E02393069B012B00F02C825146204601F0A6
S315000055F051FBDAF828310D93069B022B369B40F0BF
S31500005600998113F001030E9303D10D9B43F40073AC
S315000056100D93369B980703D40D9B43F480630D933B
S315000056209AF8D43099072DD59AF80E211399159822
S31500005630AAF8901042F0080221218AF80E211A07D2
S31500005640AAF89200CAF87C1040F1B182DDE91B216C
S315000056505242DAF8D0001201090192FBF0F291FBF6
S31500005660F0F1CAE92012DAF8CC205B074FEA0231E2
S31500005670CAF8881006D5149B1B0193FBF0F0104462
S31500005680CAF8CC000A9BFF1A002F40F36A810B9BD5
S31500005690A8EB0303002BC0F26E81002316AA514625
S315000056A0204600F065FE002316AA5146204602F069
S315000056B043FC079BBDF95A709B454FF000030A93C4
S315000056C0AABF079BABEB0707DF1BDDE908120D9BA3
S315000056D003F4F0589AF816308A42B8BF0A4648F4DE
S315000056E0400813F0060F48F00F0807EB221740F0AA
S315000056F049820E9B002B00F05481089B5B100E9391
S31500005700012300250B930A9B002B40F02182DDF834
S315000057102890D4E96E230021013B02F1080C8B424C
S31500005720C4F8B8C1C2F804801160C4F8BC3105DC05
S31500005730D4F8C03120469847D4E96EC39AF8D520EC
S3150000574002F00302032A00F0B9811A9A013B0CF118
S3150000575008010420002BC4F8B811CCE90002C4F8F3
S31500005760BC3105DCD4F8C03120469847D4E96E1325
S31500005770013B1B9A01F108000A26002BC4F8B80168
S31500005780C1E90062C4F8BC3105DCD4F8C03120465A
S315000057909847D4E96E03013B1C9A00F108011026D4
S315000057A0002BC4F8B811C0E90062C4F8BC3105DCAE
S315000057B0D4F8C03120469847D4E96E13013B1D9AB0
S315000057C001F108000526002BC4F8B801C1E9006202
S315000057D0C4F8BC3105DCD4F8C03120469847D4E97A
S315000057E06E03013B1E9A00F108010B26002BC4F83C
S315000057F0B811C0E90062C4F8BC3105DCD4F8C03188
S3150000580020469847D4E96E13013B1F9A01F1080020
S315000058101126002BC4F8B801C1E90062C4F8BC31F6
S3150000582005DCD4F8C03120469847D4E96E03013B25
S31500005830209A00F108010626002BC4F8B811C0E929
S315000058400062C4F8BC3105DCD4F8C0312046984764
